:020000040800F2
:10000000D80A002091020008B1560008D94D000816
:10001000155600081D160008856400080000000041
:10002000000000000000000000000000135A00085B
:10003000BB18000800000000115A0008995B000876
:10004000AB020008AB020008AB020008AB020008DC
:10005000AB020008AB020008AB020008AB020008CC
:10006000AB020008AB020008AB020008F51700085D
:10007000011800080D180008AB020008AB020008C8
:10008000AB020008AB020008C1140008AB02000874
:10009000AB020008AB020008AB020008AB0200088C
:1000A000AB020008AB020008AB020008AB0200087C
:1000B000155C0008AB020008AB020008AB020008A8
:1000C000AB020008AB020008AB020008AB0200085C
:1000D000AB020008AB020008ED620008AB020008AA
:1000E000AB020008AB020008AB020008AB0200083C
:1000F000AB020008AB020008AB020008AB0200082C
:10010000AB020008AB020008AB020008AB0200081B
:10011000AB020008AB020008AB020008AB0200080B
:10012000AB020008AB020008AB020008AB020008FB
:10013000AB020008AB020008AB020008AB020008EB
:10014000AB020008AB020008AB020008AB020008DB
:10015000AB020008AB020008AB020008AB020008CB
:10016000AB020008AB020008AB020008AB020008BB
:10017000AB020008AB020008AB020008AB020008AB
:10018000AB020008AB020008AB020008AB0200089B
:10019000AB02000800000000AB020008AB02000840
:1001A000AB020008AB020008AB020008AB0200087B
:1001B000AB020008AB020008AB020008AB0200086B
:1001C000AB020008AB020008AB020008AB0200085B
:1001D000AB020008AB02000800F002F800F049F89A
:1001E0000AA090E8000C82448344AAF10107DA4592
:1001F00001D100F03EF8AFF2090EBAE80F0013F09B
:10020000010F18BFFB1A43F001031847B86D000037
:10021000D86D0000103A24BF78C878C1FAD85207C8
:1002200024BF30C830C144BF04680C607047000070
:100230000023002400250026103A28BF78C1FBD8EF
:10024000520728BF30C148BF0B607047662906F0CF
:100250004182002070471FB506F037FA00F0A2FB7C
:1002600004000020002106F0A3F9E0601FBD10B5D6
:1002700010BD00F097FC1146FFF7EDFF06F058F9AE
:1002800000F0B5FC03B4FFF7F2FF03BC00F0F8FC8C
:100290000948804709480047FEE7FEE7FEE7FEE71A
:1002A000FEE7FEE7FEE7FEE7FEE7FEE70448054956
:1002B000054A064B70470000055C0008D90100089C
:1002C000D8040020D80A0020D8060020D806002034
:1002D00053EA020C00F069802DE9F04B4FF0000664
:1002E000002B1FBFB3FA83F503FA05F424FA05F6D1
:1002F0005E4012BF1643B2FA82F502FA05F4C5F168
:1003000020051EBF22FA05FC44EA0C04203556EAFB
:10031000044C4FEA144418BF641C4FF000084FF01F
:100320000009904271EB030C39D3002919BFB1FACF
:1003300081F701FA07F6B0FA80F700FA07F6C7F17D
:1003400020071EBF20FA07FC46EA0C062037B6FB42
:10035000F4FCA7EB0507103F07F01F0BCBF12006BD
:100360000CFA0BFB2CFA06F644BFB3460026202FEE
:10037000A4BF5E464FF0000B5BEA060C08BF4FF0CF
:10038000010B19EB0B09ABFB027C48EB0608C01B09
:1003900006FB02CC0BFB03CC71EB0C01C1E70B4657
:1003A000024641464846BDE8F08B13B54FF00000C9
:1003B0004FF00001AFF30080BDE81C407047000023
:1003C0000FB41CB5074B06AA7B44694600900598FC
:1003D00000F0CFFA0020694600F0DEFA1CBC5DF8A0
:1003E00014FB0000CD0500002DE9F0474FF0000A96
:1003F00089460446C0F820A02046E16888470028C6
:1004000076D0252806D0D4E901219047206A401CE7
:100410002062F1E7E168204600258847C4F81CA067
:1004200006460027C4F818A02A2E09D0304606F048
:1004300077F838B304EB8708303EC8F8186019E045
:1004400059F8041B204604EB87029161E168884754
:10045000012F064618D1E069002820DA25F0200592
:100460001DE0D8F8180000EB800006EB40003038A3
:10047000C8F818002046E1688847064606F050F89C
:100480000028EED1012F0AD02E2E08D12046E16897
:1004900088477F1C0646022F45F02005C4DBA06973
:1004A000002803DA404245F00105A061E80701D0C9
:1004B00025F01005B6B1A6F14100192802D8203662
:1004C00045F400654A463146204625604D46FFF713
:1004D000BDFE58B1012806D0ED1D25F0070000F142
:1004E000080989E704E005F1040985E730468AE751
:1004F000206ABDE8F0874FF0000200B5134694462D
:100500009646203922BFA0E80C50A0E80C50B1F16B
:100510002001BFF4F7AF090728BFA0E80C5048BF7F
:100520000CC05DF804EB890028BF40F8042B08BF1D
:10053000704748BF20F8022B11F0804F18BF00F819
:10054000012B704770477047704770472DE9FF4F88
:100550000C461E464FF0FF378BB0D2E90001DDF8A4
:1005600060800A908A46C1F30A5505B93D460021CC
:1005700008464FF00000BAF1000F00F4400005DA21
:1005800000EB80004FF4400101EA50004FEA90591F
:10059000B9F1010F00DDB9460A9850EA4A000ED0C1
:1005A00044F61050A5F2FF3545432F14B8F1000F63
:1005B0001ED07542291E1EDDC9F100021CE0B8F1F3
:1005C000010F4FF0000001D0302103E0F24305E0BD
:1005D0002154401CB042FBDB304600220021215454
:1005E0000B99C1F80880C1E900200FB0BDE8F08F79
:1005F000BD1B6D1CDEE74A4600DA694206A800F022
:100600005BFA06AB93E8070003AB83E807005046AC
:100610000A9900F03CFB8DE80700A0F500501F3858
:1006200000900398002D0ADD42F21F014A4608445B
:10063000002303A90390684600F0A5FD09E0A0F59A
:1006400000504A461F38002303A90390684600F073
:10065000AFFD8DE807000004000C03D04FF0FF3021
:10066000410800E01046B8F1000F03D000220092CC
:1006700015461EE0751E05D400F098F9303262551B
:100680006D1EF9D5B3460122084302D000227F1C1B
:1006900004E02078302801D100227F1E002A09972B
:1006A00084D01DE0112D07DA00F080F93032625558
:1006B0006D1C50EA0102F5D1084302D00098C8B180
:1006C0000EE00021681E05E0235C625C6354225446
:1006D000401E491C8142F7DBAB46A81B401E099017
:1006E000002004F80B000B98099AC0F80880C0E9B4
:1006F000002B7AE711264FF0000857E72DE9F04F5D
:1007000088460446D21D22F0070191B0D1E90001CC
:10071000CDE90A0105F0DCFE02460B98C00F01D0BE
:100720002D2007E02068810701D52B2002E0202141
:1007300001EAC000032A099001D0072A05DB03461D
:100740004146204600F078F90BE12078800601D57B
:10075000E06900E00620B8F1650F814606D0B8F1E7
:10076000660F18D0B8F1670F70D131E00020B9F1F1
:10077000110F009001DB112301E009F101030AAA26
:1007800001A90CA8FFF7E2FEDDE90C70002609F1D3
:100790000105834647E001204B4600904FF000479B
:1007A0000AAA01A90CA8FFF7D1FEDDE90DB00C994A
:1007B0005D46002610B909F101000D18B9EB0500DE
:1007C00003D4C0F1FF3609F10105A5EB09002BE0C8
:1007D000B9F1010F01DA4FF001090020B9F1110F51
:1007E0000090484601DD112300E003460AAA01A952
:1007F0000CA8FFF7ABFEDDE90C704D4600268346E2
:10080000207800070AD4AB4500DA5D4601A8012D27
:1008100004DD411911F8011C302907D04F4502DAD7
:1008200017F1040F04DA012082460FE06D1EEEE797
:10083000002F02DCED1B3E4403E0781CA84200DDE3
:100840007D1CB81B00F1010A4FF00047207800071B
:1008500003D4AA4501DB4FF0FF3A0021B7F1004F66
:100860000DF143088DF8431024D002202B23002FD4
:1008700001DA7F422D230A21021EA0F1010000DCD3
:100880005FB197FBF1FC97FBF1F201FB1C7C174673
:100890000CF1300C08F801CDEEE7A8F1010003706F
:1008A0002188090501D5452100E06521A0F1010855
:1008B00000F8011C09980FA9A1EB0807FF1D00B162
:1008C0000120411901EBEA70A1693844081A401E61
:1008D000A0612078C00602D42046AFF300800998BA
:1008E00028B1D4E901219047206A401C2062207879
:1008F000C00622D52046AFF300801EE0002E04DBA8
:10090000B34502DD01A8805D00E03020D4E901217B
:100910009047206A401C2062761CAAF101005FEA21
:10092000000A0AD100F03EF8C0680168405CD4E9D2
:1009300001219047206A401C2062281EA5F1010574
:10094000DCDC07E0D4E9012118F8010B9047206AAC
:10095000401C2062381EA7F10107F3DC2046AFF3EC
:100960000080032011B041E601694A1C0261087849
:10097000704700B58FB0CDE90131002105910549DF
:100980007944CDE9031011466846FFF72DFD0FB0FD
:1009900000BD0000E5FFFFFF0A6802F8010B0A60D6
:1009A00070470000004870479804002030B5B0F14F
:1009B0000A024FEA900E71F100034EEA817EB0EB1D
:1009C0000E0061EB91014FEA101E4EEA017E10EB22
:1009D0000E0041EB11114FEA102E4EEA016E10EBA2
:1009E0000E0041EB11214FEA104E4EEA014E10EB82
:1009F0000E0041EB1141401841F100014FEAD000D7
:100A000040EA41704FEAD10110EB80054FEA8104C2
:100A100044EA907444EB01046D1944EB0404521B46
:100A2000A3414FF0000348BF0A3200D530BD401C3F
:100A300041F1000130BD00002DE9F0411F460446A0
:100A400003260168072A01F4006004DB08B116A53B
:100A500005E016A503E008B115A500E015A521F0F5
:100A600010002060A069C01EA0610FB1401EA061EF
:100A70002046AFF300804FB1D4E9012138469047BA
:100A8000206A401C2062C01C206206E0206AFAE74F
:100A9000D4E9012115F8010B9047761EF8D22046C3
:100AA000AFF30080BDE8F0814E414E006E616E00F4
:100AB000494E4600696E66002DE9F04781461646AC
:100AC0008AB0354878440DC88DE80D003248784426
:100AD000801C03AC0DC884E80D0041F69B3008442F
:100AE000372190FBF1F290FBF1F5A5F1800501FBB8
:100AF00012041B3C02D56442012000E00020DFF814
:100B000098A080460027FA44AAF1BE0A0EE0E0074A
:100B10000AD03246684607EB470101230AEB810100
:100B200000F046FB8DE8070064107F1C002CEED11E
:100B3000194F7F44AE3F19E0E80715D007EB0410CA
:100B40000DF1180A90E80E008AE80E00C068F04225
:100B500001D1981908903246012306A903A800F094
:100B600027FB03AB83E807006D10641C002DE3D165
:100B70004FF0010332466946B8F1000F03A802D0D6
:100B800000F001FB01E000F013FBC9E90001C9F826
:100B900008200AB0BDE8F087E46400000048704710
:100BA000780400207546FFF7F9FFAE460500694658
:100BB000534620F00700854618B020B5FFF776FBB6
:100BC000BDE820404FF000064FF000074FF000084E
:100BD0004FF0000B21F00701AC46ACE8C009ACE8CF
:100BE000C009ACE8C009ACE8C0098D46704710B533
:100BF0000446AFF300802046BDE81040FFF742BB3B
:100C00004FF0013C50F8042B51F8043B9A4221D19B
:100C1000A2EB0C03934313EACC1317D150F8042B27
:100C200051F8043B9A4215D1A2EB0C03934313EA0B
:100C3000CC130BD150F8042B51F8043B9A4209D144
:100C4000A2EB0C03934313EACC13DBD04FF000006C
:100C5000704700BFD01A01BAB1FA81F101F0180152
:100C600022FA01F0CB40C1F12001DBB2C0B2C01AC0
:100C70002CFA01F3D11A914311EAC311E6D170475E
:100C800001491820ABBEFEE72600020070475FEA6C
:100C9000400C08BF91F0000F4FEA8C234FEAC122AD
:100CA00043EA51514FEA1C5018BF00F5F0404FEA9B
:100CB000300018BF41F000415FEA6C5C00F0298011
:100CC000BCF1FF3F08BF40F080407047130C06BFE7
:100CD00012044FF0100C4FF0000C130E04BF120260
:100CE0000CF1080C130F04BF12010CF1040C930F4C
:100CF00004BF92000CF1020CD30F04BF52000CF1A0
:100D0000010C11464FF00002A0F11F00A0EB0C00F7
:100D1000704711F0004F08BF704731F000413FF4B9
:100D2000D5AF0B0C06BF09044FF0100C4FF0000CB0
:100D30000B0E04BF09020CF1080C0B0F04BF0901D4
:100D40000CF1040C8B0F04BF89000CF1020CCB0FCB
:100D500004BF49000CF1010CCCF12003A0EB0C0006
:100D600022FA03F302FA0CF241EA030100F1010056
:100D7000704720F07F4C80EA030023F07F47ACEB04
:100D8000070303F57C5300F0004003F1FF032DE956
:100D900080494FEA154B09B44FEA144325EA0B4E3C
:100DA00024EA03480FF2042606EB132749083E788D
:100DB0005FEA320203FB0667C7F5000707FB06F68A
:100DC0004FEA54374FEAD64606F1020607FB066C97
:100DD000CCF1005C4FEA1C472CEA074C07FB06F4F9
:100DE0000CFB06F504EB15464FEA961634BF0020BF
:100DF0004FF000404FEAD13706FB07FC4FEA1C4C8E
:100E00000CFB0BF7D21B03FB0CF761EB07010CFB90
:100E10000EF7B0EB074072EB17420CFB08F734BF3C
:100E2000A2EB0742B2EB074261EB17414FEA0C44D9
:100E30004FEA910706FB07FC4FEA1C4C0CFB0BF733
:100E4000B0EBC74072EB573203FB0CF734BFA2EB99
:100E5000C742B2EBC74261EB57310CFB0EF7B0EB68
:100E6000C70072EB57720CFB08F734BFA2EBC70246
:100E7000B2EBC70261EB5771039F4FEA816141EA10
:100E8000921104EBCC044FEAD1374FEA826206FBA1
:100E900007FC42EA90124FEA80604FEA1C4C0CFBC0
:100EA0000BF7D21B03FB0CF761EB07010CFB0EF7F2
:100EB000B0EB074072EB17420CFB08F734BFA2EB14
:100EC0000742B2EB074261EB17414FEA8C554FEAFC
:100ED000910704EB9C2406FB07FC4FEA1C4C0CFB1F
:100EE0000BF7B0EBC74072EB573203FB0CF734BF84
:100EF000A2EBC742B2EBC74261EB57310CFB0EF7D6
:100F0000B0EBC70072EB57720CFB08F734BFA2EBD3
:100F1000C702B2EBC70261EB577115EB4C254FEAE4
:100F2000816141EA92114FEA82624FEAD13742EA87
:100F3000901206FB07FC44F100044FEA80604FEA80
:100F40001C4C0CFB0BF7D21B03FB0CF761EB0701EE
:100F50000CFB0EF7B0EB074072EB17420CFB08F7E7
:100F600034BFA2EB0742B2EB074261EB174115EB2E
:100F70001C154FEA813141EA92414FEA823242EA3E
:100F800090424FEA80304FEA0C7644F1000448EA80
:100F900003434EEA0B484FF0000EB2EB080C71EB26
:100FA000030724BF624639464EEB0E0E4FF0000B8E
:100FB0000018524149414BEB0B0BB2EB080C71EBA3
:100FC00003077BF1000B24BF624639464EEB0E0E41
:100FD0004FF0000B0018524149414BEB0B0BB2EBA9
:100FE000080C71EB03077BF1000B24BF6246394606
:100FF0004EEB0E0E51EA020718BF46F0010616EB43
:101000000E7655F1000254F1000103D5BDE88901C7
:10101000BDE80088BDE88901BDE80048B619524125
:1010200041EB0101A3F10103704780807F7E7D7C4D
:101030007B7A7978777676757473727171706F6E6A
:101040006E6D6C6C6B6A6A69686867666665646415
:10105000636362616160605F5F5E5E5D5D5C5C5B9F
:101060005B5A5A595958585757565655555554540E
:10107000535352525251515050504F4F4F4E4E4D6C
:101080004D4D4C4C4C4B4B4B4A4A4A4949494848B8
:1010900048474747474646464545454444444443F8
:1010A00043434342424242414141002B9C4630D49B
:1010B00077002BD01CB54FEA370703B44FF0100070
:1010C0004FF01001BAF1000F06D0BCF1000FDCBFE9
:1010D00040F0080040F008014FF000000FBCBDE8F0
:1010E00010400BF1010BBBF1010F08BF5FEA1707BE
:1010F00022BF12F1010211F101014FF0004143F151
:10110000000300F0004043EA00007047F9D357089D
:10111000D0E746EA064613F1400F4FEA16461FDDB8
:1011200013F1200FDFBF16430A46002120335B4234
:10113000BED0C3F1200746EA064602FA07F74FEA97
:10114000164646EA0706C3F1200722FA03F201FA1F
:1011500007F721FA03F14FF0000342EA0702A7E77D
:1011600046EA020646EA06464FEA164646EA0106FF
:10117000BCBF46EA0646360C4FF000034FF00002B3
:101180004FF0000194E72DE9804C9A46934670B4E5
:1011900091E8380007C831EA400C48BF34EA430CF4
:1011A00003D5FFF7E6FDFFF780FFF0BCBDE8008C3C
:1011B0002DE9804C9A46934670B491E8380007C8F0
:1011C00010F0804F08BF13F0804F03D100F005F8F6
:1011D000FFF76BFFF0BCBDE8008C20F07F4780EA92
:1011E000030023F07F4C07EB0C03A3F57C5300F0C6
:1011F0000040A3F1FE0392F0000F00F0B38095F0E1
:10120000000F00F077802DE901494FEA11404FEAC5
:10121000144621EA004800FB06FC24EA064708FBC6
:1012200006F607FB08F800FB07F718EB06484CEB3F
:10123000164C4FEA124B18EB07484FEA15464CEB99
:10124000174022EA0B4E0BFB06FC25EA06470EFB75
:1012500006F607FB0EFE0BFB07F71EEB064E4CEBEC
:10126000164C4FF000061EEB074E4CEB174B18EBDD
:101270000B0840F1000018EB0E0B58EB000840F192
:1012800000008F1A4FF000013CBFC943661B14BF1A
:10129000B5EB040C00213CBFC943F61B4FEA1744D1
:1012A0004EEA8E0E27EA04454FEA1C4704FB07620C
:1012B0002CEA074C05FB07F70CFB05F604FB0CFCBE
:1012C00016EB074642EB174216EB0C4642EB1C426C
:1012D0001BEB060658EB0202414146EA9E0601D589
:1012E000BDE80189B619524141EB0101A3F10103A7
:1012F000BDE801894FEA14454FEA114724EA054643
:1013000021EA074C05FB07F406FB07F70CFB06F187
:1013100005FB0CFC11EB074144EB17444FEA124765
:1013200011EB0C4144EB1C4422EA074C05FB07F28D
:1013300006FB07F70CFB06F605FB0CFC16EB074655
:1013400042EB174216EB0C4642EB1C456A1854F16F
:10135000000148BF7047B619524141EB0101A3F1AA
:101360000103704795F0000F37D04FEA11424FEA62
:10137000144721EA024624EA074C02FB07F106FB68
:1013800007F70CFB06F402FB0CFC14EB074441EBE3
:1013900017414FEA154714EB0C4441EB1C4125EA79
:1013A000074C02FB07F506FB07F70CFB06F602FBF2
:1013B0000CFC16EB074645EB174516EB0C4645EBC8
:1013C0001C42121951F1000148BF7047B619524131
:1013D00041EB0101A3F1010370474FEA14454FEAC5
:1013E000114724EA054621EA074C05FB07F106FBF5
:1013F00007F70CFB06F24FF0000605FB0CFC12EBA6
:10140000074241EB174112EB0C4251EB1C4148BF24
:101410007047921841EB0101A3F1010370470000EE
:1014200030B5264940F6E475088800EB800202EBEF
:101430000030312202EB103301F1080083614A8849
:10144000693202618C886C433B2505EB143484605F
:10145000C98800254A310160642B00DA85614FF4A8
:1014600000639A4200DA0361642C00DA85609942D5
:1014700000DA03601149836944394A6B1344A3EBD2
:1014800092024A639208C26103698A6B1344A3EB18
:1014900092028A63920842618368CA6B1344A3EB89
:1014A0009202CA639208C26003680A6C1344A3EBF9
:1014B00092020A649108416030BD0000440000209F
:1014C000014800F0EDBC0000BC00002010B5846AAB
:1014D000E16D11F0500F06D0E16DC90625D520460B
:1014E00000F0DCFC10BDE06D40F40070E0652068A9
:1014F0000168090716D503F008FE78B12068C068B6
:10150000800400280ADBE06D20F48070E065E06D67
:10151000C00403D4E06D40F00100E065204600F017
:10152000BBFC10BDC0688007EBE7616D496BBDE88F
:101530001040084710B5806AC16D41F04001C16597
:10154000016E41F00401016600F0A8FC10BD10B569
:10155000806A00F0A2FC10BDF8B50446002000909F
:101560002068816811F0010F4AD18168254A114233
:1015700037D18168D5432940491C81602068B0F18A
:10158000A04F02D02049884201D1204800E02048E5
:10159000806800F0E07000020DD51E481E4900680A
:1015A000B0FBF1F0401C00EB4000800000E0401E6A
:1015B00000900028FBD101F033FB06461BE0816858
:1015C00011F0010F03D181682940491C816001F0AD
:1015D00027FB801B02280ED920680068C043C00783
:1015E00009D0E06D40F01000E065206E40F0010091
:1015F00020660120F8BD20680168C943C907DED113
:101600000020F8BD3F0000800001005000030050A2
:10161000000700509C000020400D0300FEE7000082
:101620002DE9F0414FF090454021284603F04BFD55
:10163000674F684C4FF40056012827D194ED090AF2
:10164000654810EE101A814220DA94ED090ADFEDA8
:10165000630A20EE200A84ED090A94ED090A10EECF
:10166000101A814203DD9FED5E0A84ED090A94EDB4
:10167000090ABCEEC00A10EE100A04F029FA08B1FB
:1016800000F01CF93146384601F0BDFA80212846A9
:1016900003F019FD012827D194ED090A514810EEF5
:1016A000101A814220DD94ED090ADFED4F0A20EE89
:1016B000200A84ED090A94ED090A10EE101A8142FD
:1016C00003DA9FED4A0A84ED090A94ED090ABCEE9B
:1016D000C00A10EE100A04F0FBF908B100F0EEF8B1
:1016E0003146384601F08FFA414D1021284603F06B
:1016F000EAFC012811D1607832280ED26078401CB3
:1017000060706078322801D932206070607804F00F
:1017100081F93146384601F076FA2021284603F057
:10172000D2FC012811D160780A280ED96078401EB9
:10173000607060780A2801D20A206070607804F036
:1017400069F93146384601F05EFA4021284603F037
:10175000BAFC012814D1A0782D2811D2A078401C01
:10176000A070A0782D2801D92D20A070A07804F0B9
:101770008DF908B100F0A2F83146384601F043FA7D
:101780008021284603F09FFC012814D1A078052869
:1017900011D9A078401EA070A078052801D205209C
:1017A000A070A07804F072F908B100F087F8314613
:1017B000384601F028FA4FF40071284603F083FC04
:1017C000012801D103F028FFBDE8F04104F094BDE9
:1017D000000800480000002000E8FD47C520803FC9
:1017E00000E8FD4700B8884777BE7F3F00B88847CC
:1017F00000040048014800F0C8BF00002801002094
:10180000014800F0C2BF0000D8020020014800F0EB
:10181000BCBF0000180400200D4902688A4201D2B2
:101820000C4901E00B492031D2B21423083AB2FB33
:10183000F3F2436C02F01F0223F0030319448164A6
:1018400004498031C1640121914001657047000065
:1018500008040240000802400179074A02EB8102B5
:101860004265054A4432491E826501F01F0201218A
:101870009140C16570470000FC08024030B5D0E9D6
:1018800013456560446D14B1D0E91645656090F864
:10189000444004F01F050124AC40056C6C600468F2
:1018A00063608368102B036803D099600068C2608E
:1018B00030BD9A600068C16030BD704772B6FEE707
:1018C0007047704770477047704700002DE9F04F30
:1018D000044690F858009BB00F464FF0000B0128CB
:1018E00012D0012084F85800002617961896206818
:1018F0004FF0A048DFF81C91DFF81CA1474D404590
:1019000006D12846009508E002201BB0BDE8F08F04
:1019100048450AD15046CDF800A003F0F2FB0090F4
:10192000206803F0EEFB40B109E0E06D40F02000DC
:10193000E06584F858600120E7E7009850B1E06D59
:1019400040F02000E0654FF0010B00BF84F85860C4
:101950005846DAE720684146884201D0A84201D1C2
:101960002F4800E02F48D7F800C02F4B40F61F72D9
:10197000BCF1000F2DD0D0F808C094F838802CF4BA
:10198000604C4CEA483CD7F804804CEA080CC0F89C
:1019900008C0D4F800C08C4501D0AC4504D189689A
:1019A000AB6801F0010109E0D9F80810DAF8085035
:1019B00001F0010105F001059B68294303F00103D3
:1019C0001943C3D1BB6839681943836893431943EA
:1019D0001DE0876827F46047876027688F4201D041
:1019E000AF4204D18968AB6801F0010109E0D9F880
:1019F0000810DAF8085001F0010105F001059B68B4
:101A0000294303F001031943A0D181689143816008
:101A10009CE7000000040050000500500001005049
:101A20000003005000070050000600502DE9F84F59
:101A300000270446009790F85800DFF81C840D46F4
:101A4000B946012811D0012684F85860206803F0B7
:101A500054FB60B1E06D40F02000E0655FF00107ED
:101A600084F858903846BDE8F88F0220FBE7D5E9A6
:101A700000210C23206803EA91131844036B01F042
:101A80001F014FF01F0C0CFA01FCC2F3846223EA21
:101A90000C038A4013430363206803F02EFB824645
:101AA000206803F026FB5AEA00003CD1AA682968A6
:101AB0002068B2F1004F37D003F02FFB2068416956
:101AC00021F00041416120686969C268C2F3C10226
:101AD000520091402A69042A31D000EB82002B6821
:101AE000026EDFF878C303F0F84302EA0C020B43FE
:101AF0001A4342F00041016622682869A96902EB95
:101B00008000026E22F080720A430266297F2268FA
:101B10002869012910D0002102EB8000026E22F01A
:101B200000720A4302667DE0002203F0F6FA2068A4
:101B3000416941F00041C5E74FF00071ECE7002139
:101B400003F0D1FA400320684FF0000172D003F097
:101B5000CAFA90FAA0F0B0FA80F1286842036ED079
:101B600090FAA0F0B0FA80F0814204D10022114630
:101B7000206803F0E1FA0121206803F0B4FA400381
:101B800020684FF001015DD003F0ADFA90FAA0F0AB
:101B9000B0FA80F12868420359D090FAA0F0B0FA68
:101BA00080F0814204D100220121206803F0C4FAB0
:101BB0000221206803F097FA400320684FF00201E9
:101BC00048D003F090FA90FAA0F0B0FA80F12868BB
:101BD000420344D090FAA0F0B0FA80F0814204D1E0
:101BE00000220221206803F0A7FA0321206803F0F5
:101BF0007AFA400320684FF0030133D003F073FA00
:101C000090FAA0F0B0FA80F1286842032FD090FA41
:101C1000A0F0B0FA80F0814204D1002203212068B4
:101C200003F08AFA2068816811F0010F22D0ACE03D
:101C300000E004E003F057FAC0F384618DE7C0F3DD
:101C4000846091E703F04FFAC0F38461A2E7C0F328
:101C50008460A6E703F047FAC0F38461B7E7C0F3F6
:101C60008460BBE703F03FFAC0F38461CCE7C0F3C4
:101C70008460D0E72A7B296850F8B03FC1F3120C8A
:101C800023EA0C0302F0180C754A22FA0CF20A40FF
:101C900013430360E968414577D1286841031CD0AC
:101CA00090FAA0F1B1FA81F1491C01F01F01092954
:101CB0004FEA403132D8002912D000BF90FAA0F18B
:101CC000B1FA81F101F1010101F01F0106FA01F6FB
:101CD00009D100BFC0F3846109E0C0F38461E3E788
:101CE000C0F38461EEE790FAA0F1B1FA81F101F15D
:101CF000010101F01F0146EA816102D1C0F3846055
:101D000003E090FAA0F0B0FA80F000F1010000F0DA
:101D10001F0000EB400041EA005132E000290ED0E4
:101D200090FAA0F1B1FA81F101F1010101F01F0176
:101D300006FA01F606D100BFC0F3846106E0C0F3E5
:101D40008461F1E790FAA0F1B1FA81F101F10101AA
:101D500001F01F0146EA816102D1C0F3846003E013
:101D600090FAA0F0B0FA80F000F1010000F01F003E
:101D70003C4A00EB400002EB005041EA000141F018
:101D80000071AA68206803F0C8F937482B6803423D
:101D90003FF466AE21684FF0A04C3448344E354DC8
:101DA000614501D0A94201D1024600E03246926865
:101DB000DFF8C48002F0E072434503D0DFF8BC8056
:101DC000434521D15FEA02281ED4614506D02C4B41
:101DD00099427FF445AEA94200D0304642F400015A
:101DE000826822F0E0720A43826026482649006831
:101DF000B0FBF1F0401C00EB4000800000E0401E12
:101E000000900028FBD12BE6DFF8808043450FD1FE
:101E10005FEAC2180CD4A94202D11D4B9942F2D0FC
:101E2000614502D0A94200D0304642F080710CE0FA
:101E3000DFF860804345E6D15302E4D4A942E2D002
:101E4000614500D0304642F48001826822F0E072A1
:101E50000A43826004E6000000007F4000F0FF03B8
:101E6000FFFF0700000020FE000008800003005074
:101E70000007005000010050000021C31000C09076
:101E8000000600509C000020400D0300000052C7D7
:101E900000050050000084CB704770477047000079
:101EA0002DE9F84F04460068066845684FF0A048E1
:101EB000DFF89092404501D0484501D1A24800E0AA
:101EC000A248806800F01F07B0070ED5A8070CD500
:101ED000E06DC00603D4E06D40F40060E06520468C
:101EE000FFF7EEFC216802200860DFF864B2DFF83B
:101EF00064A2700701D5680703D430073FD52807CF
:101F00003DD5E06DC00603D4E06D40F40070E0659F
:101F1000206803F0FAF860B32068484501D14246D2
:101F200004E0584501D1524600E00246824208D002
:101F30003FB1052F05D0092F03D0484503D14146B5
:101F400006E0C16805E0584501D1514600E0014670
:101F5000C96889040DD4016809070AD503F0CDF8D2
:101F600058B3E06D40F01000E065206E40F00100D5
:101F700020662046FFF790FF21680C200860B0061D
:101F800001D5A80603D470065FD568065DD5E06D5F
:101F9000C00603D4E06D40F40050E0652068C16CD9
:101FA00011F4C07F1AD00021009103F0AEF8024670
:101FB0002068484514D1434617E02068416821F065
:101FC0000C014160E06D20F48070E065E06DC004BC
:101FD000CFD4E06D40F00100E065CAE70121E3E7FE
:101FE000584501D1534600E00346834208D03FB133
:101FF000062F05D0072F03D0484503D1414606E000
:10200000C16805E0584501D1514600E00146C96864
:10201000009BA3B18B0102D58AB18A040FD4026858
:1020200052060CD589020AD403F063F8F0B3E06DD0
:1020300040F01000E065206E40F001002066204670
:10204000FFF73FFC21686020086030060BD52806AA
:1020500009D5E06D40F48030E065204600F094F949
:10206000216880200860F0050CD5E8050AD5E06DF0
:1020700040F40030E0652046FFF725FC21684FF46E
:1020800080700860B0050CD5A8050AD5E06D40F455
:102090008020E0652046FFF717FC21684FF40070B0
:1020A0000860F00631D5E8062FD500E009E0E06BC6
:1020B000E8B12068EFB3404501D0484512D122482D
:1020C00011E02068416821F060014160E06D20F47A
:1020D0008050E065E06DC005B1D4E06D40F00100D6
:1020E000E065ACE71948806800F4604050B1E06DED
:1020F00040F48060E065206E40F0020020662046DB
:10210000FFF7CCFE216810200860700517D5680520
:1021100015D5E06D40F48040E065206E40F0080089
:10212000206621684FF4806008602046BDE8F84FC3
:1021300000E001E0FFF7C6BBC068C007D6E7BDE816
:10214000F88F00000001005000030050000700500D
:102150000005005000040050F8B54FF000050400E1
:102160002E46009502D0E06D10B107E00120F8BDC9
:10217000204600F00BF9266684F8586020688168D4
:10218000C1F3407119B18168734A114081602068C0
:102190008168C1F3007189B98168704A114041F0CA
:1021A000805181606E486F490068B0FBF1F04000DB
:1021B000801C00E0401E00900028FBD12068816850
:1021C000C1F3007141B9E16D41F01001E165216E8B
:1021D00041F001012166012502F08FFFE16DC90682
:1021E00000D430B1E06D40F01000E06501252846D4
:1021F000F8BDE06D20F4807040F00200E0652068DA
:10220000816811F0010F27D14FF0A043564A984240
:1022100001D0904204D19968966801F001010AE06A
:1022200052498968524E01F00101B66806F0010674
:102230003143504EB66806F0010631430CD1984246
:1022400001D0904201D14C4800E04C48616882685E
:1022500022F47C120A438260E168E06B627F0843EB
:10226000A16841EA4231084394F8241040EA014051
:10227000012904D1218D424A02EB41410843E16A20
:1022800029B101F47871226B014342EA010022680E
:10229000D1683C4B19400143D16020680169626BF1
:1022A00021F0406111430161206802F022FF70BB00
:1022B000207F94F838102268800340EA4100D168FA
:1022C00044F2020399430143D16020690028206849
:1022D00001690AD041F480310161206850F8C01FC3
:1022E00022696FF30D01114307E021F48031016190
:1022F000206850F8C01F6FF30D01016094F8400092
:1023000001280CD02068016921F001010161606998
:1023100001282068016B21F00F0111D013E0D4E9EE
:1023200011010843D4E913121143084321680A69D3
:1023300040F2FC739A43104340F001000861E6E765
:10234000226A521E11430163E06D20F0020040F04A
:102350000100E0654BE70000C0FFFF5FC0FFFF7FAB
:102360009C000020400D03000001005000040050BC
:102370000005005000060050000300500007005008
:102380000000FEFF0740F0FF7047000070B59CB0F2
:102390000646142115A8FEF7AEF854216846FEF74C
:1023A000AAF83068B0F1A04F44D14FF4004000903B
:1023B00080031190684601F09DF908B1FFF77EFA9D
:1023C0001D49C86C40F40050C864C86C00F400504B
:1023D0001A90C86C40F00100C864C86C002500F079
:1023E00001001A900320CDE91605159015A94FF0AC
:1023F000904000F0DFFA124C104820600520C4E93C
:1024000001058020C4E90350400060618000C4E9F8
:1024100006052046256200F015FA08B1FFF74EFACE
:102420007465002211461220A66201F0CBF812203A
:1024300001F0BAF81CB070BD001002400800024064
:10244000280100202DE9F041044600684FF0A04526
:10245000444FA84201D0B84201D1434900E043496A
:10246000896801F01F0602F048FE18B102210846F3
:10247000BDE8F08194F8580001280CD0012084F8C0
:1024800058002046FFF768F801004FF0000204D022
:1024900084F85820EBE70220EAE7E06D40F601639C
:1024A000984340F48070E0652068314BDFF8C4C089
:1024B000B84201D1AE4604E0984201D1E64600E0C0
:1024C0008646864500D02EB9D4F85CE02EF4801EF6
:1024D000C4F85CE0D4F85CE05FEACE4E06D5D4F8F0
:1024E00060E02EF0060EC4F860E000E022664FF0D7
:1024F0001C0EC0F800E084F858202068B84201D1D2
:102500002A4604E0984201D1624600E00246824237
:102510000ED06EB1052E0BD0092E09D0E26D42F41B
:102520008012E265B84213D0984210D165460FE0A0
:10253000C268920105D5E26D22F4005242F4805245
:10254000E26582680C4B1A40121D82608FE70546D7
:10255000E86880018BD5E06D20F4005040F4805095
:10256000E06584E7000100500003005000070050C0
:102570000005005000040050C0FFFF7F2DE9F04728
:10258000044600684FF0A0483D4F91468A464045BA
:1025900001D0B84201D13B4900E03B49896801F0D4
:1025A0001F0502F0AAFD002868D194F85800012800
:1025B00064D0012084F8580034492068884201D151
:1025C000012000E00020401E28424FF0000605D008
:1025D000052D03D0092D01D0012003E02046FEF790
:1025E000BBFF18B184F85860BDE8F087E06D40F695
:1025F0000161884340F48070E0652068B84201D1F1
:10260000414605E02249884201D1224900E00146C5
:10261000814200D01DB9E06D20F48010E065E06DCE
:10262000C00404D5206E20F00600206600E0266677
:10263000616D1948C862616D18480863616D18487A
:10264000486321681C20086084F85860206841684D
:1026500041F0100141602068C16841F00101C16092
:1026600021684B4652464031606D00F04BF92168BD
:102670008A680C4B1A40121D8A60B5E70220B3E746
:1026800000010050000300500007005000060050F9
:102690000005005000040050CD1400084F1500083C
:1026A00035150008C0FFFF7F10B590F825300021D8
:1026B0000122022B03D00421C163012122E003681F
:1026C0001C6824F00E041C60836C1C6824F4807465
:1026D0001C6003681C6824F001041C6090F84430FE
:1026E000046C03F01F0302FA03F36360D0E91334B0
:1026F0005C60436D33B11C6824F480741C60D0E9C5
:1027000016345C6080F82520002280F824200846DA
:1027100010BD70B590F82520002401212346022A1F
:1027200007D00422C26380F8251080F824300124E9
:1027300029E00268156825F00E0515600268156825
:1027400025F001051560826C156825F4807515600B
:1027500090F84420056C02F01F0201FA02F26A6050
:10276000D0E913255560426D32B1156825F48075A6
:102770001560D0E91625556080F8251080F82430C2
:10278000816B01B18847204670BDF0B4016C0C68C4
:1027900001680D6890F8442002F01F06042202FA36
:1027A00006F3234211D06B070FD50B689B0603D4A9
:1027B0000B6823F004030B6090F8441001F01F0134
:1027C0008A40016C4A60016B1DE0022303FA06F7A0
:1027D00027424FF0000C4FF0010218D0AF0716D57A
:1027E0000C68A40605D40C6824F00A040C6080F878
:1027F000252090F8441001F01F018B40016C4B60C4
:1028000080F824C0C16A00291AD0F0BC0847082308
:10281000B340234214D02B0712D50B6823F00E03CC
:102820000B6090F84410036C01F01F0102FA01F1F3
:102830005960C26380F8252080F824C0416BE2E72C
:10284000F0BC704770B504000CD02B4A21681420EE
:10285000914209D2294A0A44B2FBF0F08000606438
:1028600027480AE0012070BD234A52420A44B2FBC5
:10287000F0F080006064204808382064022084F86A
:1028800025000A6847F6F0708243D4E90203184332
:10289000D4E904352B431843A3691843E36918436B
:1028A000236A1843104308602046FEF7B5FFA0686E
:1028B0000025B0F5804F00D16560A16C20790860DB
:1028C000D4E9130141606068401E032808D82046FF
:1028D000FEF7C2FF606D0560D4E91601416002E0B9
:1028E0006565A565E565E563012084F8250084F844
:1028F0002450002070BD000008040240F8FFFDBF16
:102900000000024070B5044690F82400002501281C
:102910000CD0012084F8240094F825600020012EBA
:1029200006D084F824000225284670BD022070BD20
:10293000022684F82560E0632068066826F0010618
:1029400006602046FEF79AFF206B00282068016889
:1029500002D041F00E0106E021F004010160206880
:10296000016841F00A010160A06C0168C90303D548
:10297000016841F480710160606D18B1016841F433
:10298000807101602068016841F001010160CBE7BE
:1029900070B5044600F044F90546601C02D00448B6
:1029A0004068044400F03CF9401BA042FAD370BDDB
:1029B000900000202DE9F04FDFF82092002301263F
:1029C0000324A9F1040B85B00F2709F1040AABF128
:1029D000040EFAE006FA03F52A407CD091F804C010
:1029E0000CF0030CBCF1010F02D0BCF1020F26D198
:1029F000D0F808C0CDF800C04FEA430C04FA0CF838
:102A0000CDF810C0DDF800C02CEA080CCDF800C0ED
:102A1000D1F80C80DDF810C008FA0CF8DDF800C021
:102A200048EA0C08C0F80880D0F804C02CEA050C6D
:102A30000D79C5F300159D4045EA0C0545600D79FB
:102A4000ED43AD070ED0C5684FEA430804FA08FC11
:102A500025EA0C05D1F808C00CFA08FC4CEA050C74
:102A6000C0F80CC00D7905F00305022D16D1DD0864
:102A700000EB850CCDF808C0DCF820805D074FEA3C
:102A8000D56C07FA0CF528EA05080D6905FA0CF56E
:102A9000DDF808C045EA0805CCF8205005684FEA83
:102AA000430CCDF808C004FA0CFC25EA0C0591F89B
:102AB00004C00CF00308DDF808C008FA0CF848EA76
:102AC0000508C0F800804D6815F4403F7CD0444DA7
:102AD000D5F860C000E077E04CF0010CC5F860C0AC
:102AE0002D6E23F0030C05F0010500953D4D654466
:102AF0000295AD684FEA837C4FEA1C7807FA08FC20
:102B000025EA0C05B0F1904F06D0DFF8DCC0604537
:102B100005D14FF0010C20E04FF0000C1DE0DFF874
:102B2000CCC0604502D14FF0020C16E0DFF8C0C007
:102B3000604502D14FF0030C0FE0DFF8B8C06045EC
:102B400002D14FF0040C08E0DFF8ACC0604502D1C0
:102B50004FF0050C01E04FF0060C0CFA08FC4CEAB3
:102B6000050C029DC5F808C0D9F80050CC46D1F834
:102B7000048095435FEAC82800D51543CCF800507F
:102B8000DAF80050D446D1F8048095435FEA8828EB
:102B900000D51543CCF80050DBF80050DC46D1F8E6
:102BA000048095435FEA883800D51543CCF800507F
:102BB000DEF80050F446D1F8048095435FEAC83847
:102BC00000D51543CCF800505B1C0A6832FA03F5B7
:102BD0007FF400AF05B0BDE8F08F000008040140AD
:102BE00000100240000001400004004800080048B6
:102BF000000C00480010004800140048006908401C
:102C000000D001207047426921EA02030A4043EAEA
:102C10000241816170470AB18161704781627047EA
:102C200001488068704700009000002010B590F8BF
:102C3000DC20012A21D0012280F8DC20022380F848
:102C4000DD304B1C1BD00368D3F8CC4344F00204A6
:102C5000C3F8CC430368D3F8CC4324F00C040C43F2
:102C6000C3F8CC430168D1F8CC3343F00103C1F879
:102C7000CC3380F8DD20002010BD022010BD01689B
:102C8000D1F8CC3323F00203C1F8CC33EAE70000DB
:102C900038B5040056D0022084F8DD000025C4F8C1
:102CA000E050C4F8E450C4F8E850C4F8EC50C4F85C
:102CB000F050C4F8F450C4F8F850207AC0071BD084
:102CC00021492068884208D12048016E41F0806186
:102CD0000166006E00F0806000902168086820F4B2
:102CE0004042208A00F44040104320F44052A08A21
:102CF00000F4405010430860204600F029F8207A84
:102D0000800708D52168086820F44072A08900F483
:102D1000407010430860012084F8DD0084F8DC5026
:102D20005FF00001C1EBC10004EB8000491C85612C
:102D3000C561056245628562C9B205630629F1D99C
:102D4000002038BD012038BD00680140001002405D
:102D500008B500680649884208D10648016E41F06E
:102D600080610166006E00F08060009008BD000088
:102D7000006801400010024010B586B004461421DE
:102D80006846FDF7B8FB0F492068884218D10E4805
:102D9000C16C41F00101C164C06C694600F00100E2
:102DA00005904FF470600090022001900020029086
:102DB000032003900D2004904FF09040FFF7FAFDA0
:102DC00006B010BD006801400010024070B50D460D
:102DD0000446FFF725FF064607E0681C05D0FFF70D
:102DE0001FFF801BA8420DD865B12068D0F888036A
:102DF000C043C003F1D4012084F8DD00002084F832
:102E0000DC0070BD072084F8DD00032070BD90F861
:102E1000DD20022A11D090F8DC20012A0DD00122F9
:102E200000F8DC2F0223437050F8DC3CC3F8841315
:102E3000427000210170084670470220704770B54B
:102E400090F8DD30022B23D0022380F8DD300629F4
:102E500020D08023046803EBC115635923F00706D3
:102E60009368334323F01806D368334363519425A2
:102E7000046805EBC115136863519824036804EBDB
:102E8000C11152685A50012180F8DD10002070BD38
:102E9000022070BD0368196821F00704916821437E
:102EA00021F01804D1682143196003681168596141
:102EB000516802689161E6E72DE9F04F90F8DD4036
:102EC000022C25D090F8DC40012C21D04FF00109D4
:102ED00080F8DC90022480F8DD4000274FF0070CDA
:102EE000062918D09C2404EBC116012A39D080246D
:102EF000A8254FF4005A4FF4405B05EBC11504EBD5
:102F0000C114022A2FD0042A45D0082A0BD144E04C
:102F10000220BDE8F08F012A0AD0022A0CD0042A30
:102F20000ED0082A10D080F8DDC080F8DC700EE0EA
:102F300002681968D1610AE002681968516206E006
:102F400002681968916202E002681968D16290F81B
:102F5000DD10072948D080F8DD9080F8DC70002073
:102F6000D7E7196835E04FF0A408D0F800C008EBA7
:102F7000C1111A684CF801205968002901680A59E2
:102F800022F440522ED00A5101680A59D3F804C0E5
:102F900042EA0C0218E0196821E04FF0AC08D0F8C2
:102FA00000C008EBC1111A684CF8012059680029CB
:102FB00001680A5922F4404214D00A5101680A59A2
:102FC000D3F804C042EA8C020A515968514503D132
:102FD000996802689151BAE75945B8D19968026871
:102FE0005151B4E70A51B2E7012092E710B590F8C9
:102FF000DC20012A0ED0012200F8DC2F02234370CE
:1030000050F8DC3C1C680C431C60427000210170CD
:10301000084610BD022010BD70B5044690F8DD00D2
:10302000022811D094F8DC0001280ED0012584F884
:10303000DC50022084F8DD00204601F090FD84F889
:10304000DD50002084F8DC0070BD022070BD10B59A
:1030500090F8DC20012A10D0012200F8DC2F022396
:10306000437050F8DC3CD3F894430C43C3F89443CA
:10307000427000210170084610BD022010BD2DE9EC
:10308000F041044690F8DD0015460E46022826D091
:1030900094F8DC00012821D0012784F8DC7002209C
:1030A00084F8DD00062E1CD0204601F0C7FDC6EBDB
:1030B000C60004EB80002968016269684162A96862
:1030C0008162E968C162296901633146204601F0E5
:1030D000C8FC062E15D0E86A40B112E00220BDE817
:1030E000F0811146204601F0F1FCE0E780212068E4
:1030F00001EBC6114258EB6D22F4007242EA432202
:10310000425084F8DD70002084F8DC00E7E72DE908
:10311000F041044690F8DD00022824D094F8DC0049
:1031200001281FD0012584F8DC50022084F8DD003E
:10313000EC20266800EBC113F058176820F010004F
:1031400040EA071020F480175068384320F4803795
:10315000D068384320F40037906838439769012FCE
:1031600003D00CE00220BDE8F08120F004071069D4
:10317000384320F002075069384340F00100F05016
:10318000204601F06EFC84F8DD50002084F8DC005D
:10319000E9E790F84120202A24D190F84020012A24
:1031A00020D0012280F84020242280F841200268AB
:1031B000136823F0010313600268136823F480533B
:1031C0001360026813680B43136001680A6842F0D9
:1031D00001020A60202180F84110002180F840108F
:1031E000084670470220704790F84120202A22D1DB
:1031F00090F84020012A1ED0012280F8402024228D
:1032000080F841200268136823F00103136002680C
:10321000136823F4706343EA0121116001680A68AE
:1032200042F001020A60202180F84110002180F85C
:1032300040100846704702207047000070B5040037
:1032400004D094F84100002510B106E0012070BDC3
:1032500084F84050204600F0FBF8242084F8410018
:103260002068016821F0010101606068216820F098
:10327000706008612068816821F400418160E06825
:103280000128A06830D040F4044021688860E068DC
:103290000228206841682AD021F40061416020683A
:1032A0004168144A114341602068C16821F400411B
:1032B000C160D4E904010843A16940EA0120216802
:1032C000C860D4E9070108432168086020680168E4
:1032D00041F0010101606564202084F8410025630C
:1032E00084F84250002070BD40F40040CDE741F426
:1032F0000061D3E7008000022DE9FF4F83B0044650
:10330000DDE9108790F84100DDF848909A46934631
:10331000202871D15FEA080014D09FB194F84000D2
:10332000012869D0012084F84000FFF779FC0646A7
:10333000012200901923D103204601F02FFE00281E
:103340006ED103E04FF40070606469E0212084F8DE
:103350004100402084F8420000256564C4F82480C0
:1033600067856563CDE9009653465A462046049921
:1033700001F0CAFD10B184F8405051E0608DFF2784
:103380004FF080784FF0007AFF2804D927853A461D
:103390004346009505E0608D2085009594F828202F
:1033A00053462046049901F0E1FD32464946204645
:1033B00001F05CFEA0BB606A216800788862606AE8
:1033C000401C6062608D401E6085208D401E80B272
:1033D0002085618DD9B1D0B94B460022802120468D
:1033E000009601F0DBFDD8B9608DFF2805D927854F
:1033F0003A464346009506E026E0608D208500951C
:1034000094F8282053462046049901F0AFFD608DC2
:103410000028CAD132464946204601F0FCFD18B1C9
:10342000012007B0BDE8F08F20682021C16120682D
:103430004268064B1A40426084F8411084F84250BA
:1034400084F840500020ECE70220EAE700E800FEA4
:1034500070B59CB00646142115A8FDF74CF8542110
:103460006846FDF748F82249306888423ED1801509
:10347000002500900995684600F03CF908B1FEF778
:103480001DFA1C4CE06C40F00400E064E06C15A9EF
:1034900000F004001A904FF440701590122016901E
:1034A0000120CDE91705082019901348FFF782FA8B
:1034B000A06D40F08040A065A06D114C00F08040F0
:1034C0001A900E482060152060601020C4E90205A3
:1034D0008020C4E90405A561E56120462562FFF767
:1034E000B1F908B1FEF7EAF9B463A6621CB070BD89
:1034F0000078004000100240000800481C00024014
:10350000D8020020024881684268114481607047F7
:103510009000002010B50024032000F073F80F2065
:1035200000F008F808B1012401E000F025F8204679
:1035300010BD000070B50E4E05460024706898B1AD
:103540004FF47A71B1FBF0F00A490968B1FBF0F071
:1035500000F09CFD40B9102D06D200222946501ED5
:1035600000F030F8356000E00124204670BD000016
:10357000900000209C0000200A4882B0016E41F0BB
:1035800001010166016E01F001010091816D41F0C0
:1035900080518165806D00F08050009002B000F095
:1035A000A1B8000000100240002809DB00F01F0253
:1035B000012191404009800000F1E020C0F8001195
:1035C00070470000F0B40E4B1B680C46C3F3022397
:1035D000C3F10705042D00D90425191D072901D2BF
:1035E000002300E0DB1E012606FA05F1491E2140FA
:1035F00099409E40761E16403143F0BC02F080BFD9
:103600000CED00E0064900F0070208684FF6FF03E2
:10361000184040EA0220034A104308607047000047
:103620000CED00E00000FA052B492C4B0A68322112
:103630004A432B4940B1B0F5007F086829D020F4F7
:10364000C06040F480602CE00868C0F3412002288C
:1036500004D051F8800F20F4807022E0D1F880006F
:1036600020F48070C1F88000086820F4C06040F445
:1036700000700860B2FBF3F0401C00E0401E4A6995
:10368000520501D50028F9D1486940050AD5032023
:103690007047C0F34120022806D051F8800F40F453
:1036A0008070086000207047D1F8800040F480707E
:1036B000C1F88000086820F4C06040F40070086021
:1036C000B2FBF3F0401C00E0401E4A695205DBD516
:1036D0000028F9D1D8E700009C00002040420F00EC
:1036E000007000400248816841F480418160704769
:1036F000007000402DE9F843044600680026BB4DE9
:1037000000035ED5A86D0027C00008D4A86D40F066
:103710008050A865A86D012700F080500090DFF868
:10372000D092D9F8001041F48071C9F80010FFF769
:1037300077FA804606E000BFFFF772FAA0EB0800B8
:1037400002282BD8D9F80000C005F5D5D5F890008F
:1037500010F4407014D0216D814211D0D5F8900042
:10376000D5F8901020F4407041F48031C5F89010E5
:10377000D5F8901021F48031C5F89010C5F890006C
:10378000C00711D0FFF74CFA804641F2883907E0B4
:10379000FFF746FAA0EB0801494501D903260BE0E3
:1037A000D5F890008007F3D5D5F89000216D20F46E
:1037B00040700843C5F890001FB1A86D20F08050FC
:1037C000A8652078C00707D0D5F88800616820F088
:1037D00003000843C5F888002078800707D5D5F88E
:1037E0008800A16820F00C000843C5F88800207804
:1037F000400707D5D5F88800E16820F0300008437D
:10380000C5F888002078000707D5D5F88800216919
:1038100020F0C0000843C5F888002078C00607D50E
:10382000D5F88800616920F440700843C5F8880025
:103830002078800607D5D5F88800A16920F440607B
:103840000843C5F888002078400607D5D5F88800D9
:10385000E16920F440500843C5F88800207800064C
:1038600007D5D5F88800216A20F440400843C5F800
:1038700088002088C00507D5D5F88800616A20F443
:1038800040300843C5F888002068800307D5D5F884
:103890009C00A16A20F003000843C5F89C00208822
:1038A000800507D5D5F88800E16A20F44020084358
:1038B000C5F88800208840050FD5D5F88800216B11
:1038C00020F440100843C5F88800206BB0F5801F35
:1038D00003D1E86840F48010E860208800050FD527
:1038E000D5F88800616B20F440000843C5F88800D3
:1038F000606BB0F5800F03D1E86840F48010E86099
:103900002088C0040FD5D5F88800A16B20F0407046
:103910000843C5F88800A06BB0F1807F03D1E86848
:1039200040F48010E86020884FF0006180040ED5DC
:10393000D5F88800E26B20F040601043C5F888009D
:10394000E06B884203D1E86840F48010E86020888A
:1039500040040ED5D5F88800226C20F0406010435A
:10396000C5F88800206C884203D1E86840F48010D4
:10397000E860208800040FD5D5F88800616C20F03D
:1039800040500843C5F88800606CB0F1805F03D1F7
:10399000E86840F48030E8602068C0030FD5D5F8AF
:1039A0008800A16C20F040400843C5F88800A06C56
:1039B000B0F1804F03D1E86840F48030E8602068BF
:1039C00040030FD5D5F89C00E16C20F4401008436B
:1039D000C5F89C00E06CB0F5001F03D1E86840F426
:1039E0008010E8603046BDE8F88300000010024017
:1039F000007000402DE9F0470E4605004FF000072B
:103A000025D0DFF8AC81D8F8000000F00F00B042FC
:103A10000CD2D8F8001021F00F013143C8F8001083
:103A2000D8F8000000F00F00B04210D12968614CB6
:103A3000C80741F2883A5AD06868DFF87C910328B9
:103A400008D0022820682DD0400500282CDB01205A
:103A5000BDE8F08720688001F9D5E06800F0030236
:103A6000E068C0F30310401C032A19D0534A00BF7A
:103A7000B2FBF0F0E268C2F306225043E268C2F300
:103A80004162521C5200B0FBF2F0484517D9A068C1
:103A900010F0F00F0CD0880711D5A86840B10EE0E7
:103AA000474AE5E78003D0E700F0B6F8484506D975
:103AB000A06820F0F00040F08000A0608027A0689F
:103AC000696820F003000843A060FFF7A9F8814669
:103AD00006E000BFFFF7A4F8A0EB090151453AD872
:103AE000A068696800F00C00B0EB810FF2D1286883
:103AF000810714D5400703D5A06840F4E060A060BA
:103B00002878000705D5A06820F4605040F4E060F4
:103B1000A060A068A96820F0F000084304E0802FAE
:103B200003D1A06820F0F000A060D8F80010404653
:103B300001F00F01B14216D9016821F00F013143A4
:103B40000160FFF76DF8074607E000BFFFF768F870
:103B5000C11B514501D903207AE7D8F8000000F0D5
:103B60000F00B042F2D12878400705D5A068E96877
:103B700020F4E0600843A0602878000706D5A0681C
:103B8000296920F4605040EAC100A06000F044F8C8
:103B9000A1680C4AC1F30311515C01F01F01C84038
:103BA0000949086009480068BDE8F047FFF7C2BC52
:103BB000002002400010024000B4C4040024F400BD
:103BC000001BB700186F00089C0000209000002028
:103BD0000548064900688968054AC1F30221515C1D
:103BE00001F01F01C84070479C00002000100240F7
:103BF000286F00080548064900688968054AC1F32E
:103C0000C221515C01F01F01C84070479C00002098
:103C100000100240286F0008184910B58868C0F3EA
:103C200081021748012A0BD08A68164BC2F3810221
:103C3000022A06D08A68C2F38102032A03D0002038
:103C400010BD184610BDCA6802F00304CA68C2F36A
:103C50000312521C032C02D0B0FBF2F001E0B3FBC4
:103C6000F2F0CA68C968C2F306225043C1F3416149
:103C7000491C4900B0FBF1F010BD000000100240EB
:103C80000024F400001BB7002DE9F84304007AD0AB
:103C90002078F84DC00747D0A868E96800F00C000C
:103CA00001F003010C2802D0082817D001E00329F5
:103CB00014D06068B0F5803F17D0B0F5A02F286809
:103CC00017D020F480302860286820F480202860F5
:103CD0006068E0B1FEF7A4FF064614E028688003A0
:103CE00022D560680028D2D01EE0286840F48030D9
:103CF000EDE740F480202860F7E700BFFEF790FF73
:103D0000801B642870D828688003F7D50CE0FEF784
:103D100087FF064605E000BFFEF782FF801B642890
:103D2000F0D828688003F7D4207880074CD5A8689D
:103D3000E96800F00C0001F003010C2802D004280F
:103D40000DD001E002290AD0E068002828682BD0B5
:103D500040F480702860FEF763FF064619E028688B
:103D6000400502D5E068002891D06868217C20F0E9
:103D7000FE4040EA01606860BF480068FFF7DAFB78
:103D8000002800D120E072E1FEF74AFF801B0228E4
:103D9000B8D828684005F7D56868217C20F0FE4037
:103DA00040EA016068600FE020F480702860FEF750
:103DB00037FF064605E000BFFEF732FF801B0228F2
:103DC000A0D828684005F7D42078000729D5606975
:103DD0000028D5F8940013D040F00100C5F89400F5
:103DE000FEF71EFF064606E090E000BFFEF718FF54
:103DF000801B022886D8D5F894008007F6D510E0FD
:103E000020F00100C5F89400FEF70AFF064604E022
:103E1000FEF706FF801B022878D8D5F894008007AB
:103E2000F6D42078400761D5A86D0026C00008D4DC
:103E3000A86D40F08050A865A86D012600F0805064
:103E400000908E480168C90511D40168804641F48C
:103E500080710160FEF7E4FE074604E0FEF7E0FE35
:103E6000C01B022852D8D8F80000C005F6D5A068BB
:103E7000012815D00528D5F8900016D020F00100B3
:103E8000C5F89000D5F8900020F00400C5F8900027
:103E9000A06841F28838B8B1FEF7C2FE07460EE0CE
:103EA000D5F8900040F00100F0E740F00400C5F8BC
:103EB0009000F5E7FEF7B4FEC11B414526D8D5F8C2
:103EC00090008007F6D50CE0FEF7AAFE074604E056
:103ED000FEF7A6FEC11B414518D8D5F89000800713
:103EE000F6D41EB1A86D20F08050A8652078800619
:103EF00029D5A0690028D5F8980013D040F001001A
:103F0000C5F89800FEF78CFE064606E075E000BF97
:103F1000FEF786FE801B02286FD8D5F89800800730
:103F2000F6D510E020F00100C5F89800FEF778FE05
:103F3000064604E0FEF774FE801B02285DD8D5F823
:103F400098008007F6D4E069F0B3A968C1F3810155
:103F500003295DD00228286820F08070286003D0F3
:103F6000FEF75EFE04464BE0FEF75AFE064604E00E
:103F7000FEF756FE801B02283FD828688001F7D440
:103F8000F4E908016FF00F0202EB01110843218AE6
:103F90005204490802EB4151A26841EA0221084358
:103FA000217D4FF07E42490802EB41610843217BAD
:103FB00040EAC160E968324A11400843E860286875
:103FC00040F08070286000E05EE0E86840F08070BB
:103FD000E860FEF725FE044605E000BFFEF720FE80
:103FE000001B022809D828688001F7D54CE000BFE3
:103FF000FEF716FE001B022802D90320BDE8F88355
:1040000028688001F4D4E8681E490840E8603BE075
:104010000128F3D0E868226A00F00301914226D11A
:10402000616A00F0F0020901103991421FD1A26AC1
:1040300000F4FE41B1EB022F19D194F82C2000F0CE
:104040007841B1EBC26F12D1218E00F4C002490851
:104050004905A1F50011914209D194F8341000F0FE
:10406000C06049084906A1F1007181420CD00120CD
:10407000C4E70000001002409000002000700040E3
:104080000C809F01FCFFEEFE0020B7E710B5401E3C
:10409000B0F1807F01D3012010BD4FF0E0246061BA
:1040A0000F21601702F02CFA0020A0610720206188
:1040B000002010BD704770477047704770477047C9
:1040C000F0B590F83C20012A43D0012580F83C50FF
:1040D000022280F83D2003685A689C681E4E1F4FDC
:1040E000DFF87CC0B34203D0BB4201D0634504D1AA
:1040F00022F4700E4A6842EA0E02DFF868E002EA33
:104100000E02D1F800E04EEA020EC3F804E00268A5
:10411000B24212D0B2F1804F0FD0134B9A420CD062
:10412000124B9A4209D0124B9A4206D0BA4204D09E
:10413000104B9A4201D0624504D1896824F0800373
:104140001943916080F83D50002180F83C100846EA
:10415000F0BD0220F0BD0000002C01400034014001
:10416000005001408FFFFFFD0004004000080040A8
:10417000000C004000400140704710B5040003D01F
:1041800094F83D0010B107E0012010BD002084F834
:104190003C00204600F022F8022084F83D00211D5A
:1041A000206801F055FD012084F8480084F83E00A5
:1041B00084F83F0084F8400084F8410084F842000D
:1041C00084F8430084F8440084F8450084F84600ED
:1041D00084F8470084F83D00002010BD08B5006851
:1041E000B0F1804F12D10A48816D41F00101816523
:1041F000806D002200F00100009011461C20FFF7A6
:10420000E1F9BDE808401C20FFF7CEB908BD000069
:104210000010024090F83D10012901D001207047A4
:10422000022180F83D100168CA6842F00102CA60AC
:1042300000681349884214D0B0F1804F11D0114961
:1042400088420ED0104988420BD01049884208D0CD
:104250000F49884205D00F49884202D00E49884252
:1042600007D181680D4A1140062906D0B1F5803F7B
:1042700003D0016841F00101016000207047000097
:10428000002C01400004004000080040000C0040E9
:10429000003401400040014000500140070001008F
:1042A00070B5044690F83C00002501281CD001267A
:1042B00084F83C60022084F83D0022689068334B0B
:1042C000184020F47F4090600868B0F5005F2ED061
:1042D00016DC402849D009DCD0B1102818D020289D
:1042E00016D0302849D113E0022070BD50282AD0C2
:1042F000602830D070280FD0B0F5805F3DD13DE010
:1043000010F00F0F39D10111A1F58031072934D8F0
:1043100022680146104625E0CB68D1E901212068DA
:1043200001F008FD2068816841F0770109E0CB6861
:10433000D1E90121206801F0FDFC2068816841F489
:10434000804181601AE0CA684968206801F006FD72
:104350005021206806E0CA684968206801F00FFD16
:104360006021206801F0F0FC08E0CA684968206814
:1043700001F0F4FC40212068F4E7012584F83D6059
:10438000002084F83C00284670BD000088FFCEFF66
:1043900070472DE9F04104460068C66805694FF092
:1043A0000007A90713D5B10711D5F91E0161012036
:1043B0002077206880698007204602D0FFF7E8FF59
:1043C00004E000F0B7F8204600F0B5F8277768075A
:1043D00016D5700714D521686FF00400086102201B
:1043E00020772068806910F4407F204602D0FFF7D4
:1043F000CFFF04E000F09EF8204600F09CF82777FD
:10440000280715D5300713D521686FF0080008611B
:10441000042020772068C0698007204602D0FFF77B
:10442000B7FF04E000F086F8204600F084F8277714
:10443000E80616D5F00614D521686FF01000086163
:10444000082020772068C06910F4407F204602D001
:10445000FFF79EFF04E000F06DF8204600F06BF8D7
:104460002777E80708D0F00706D021686FF0010031
:104470000861204600F060F8280601D4A80408D599
:10448000300606D521686FF4025008612046FFF718
:1044900012FEE80508D5300606D521686FF4807055
:1044A00008612046FFF706FE680608D5700606D5A7
:1044B00021686FF040000861204600F03EF8A80631
:1044C00008D5B00606D521686FF0200008612046A7
:1044D000FFF7F2FDE80208D5F00206D521686FF477
:1044E000801008612046FFF7E9FDA80208D5B00258
:1044F00006D521686FF4001008612046FFF7DDFD46
:10450000680208D5700206D521686FF48000086142
:104510002046FFF7D4FD28020AD5300208D52168CD
:104520006FF4000008612046BDE8F041FFF724BEAB
:10453000BDE8F081704770477047704790F884106D
:10454000012918D0012180F884102421C0F8881096
:1045500001680A680B6823F001030B6022F0005128
:1045600000224266036819602021C0F8881080F894
:10457000842010467047022070477047704770B51E
:10458000044690F8840001281DD0012084F884009E
:104590002420C4F8880020680568026822F001021F
:1045A00002602068826822F060620A4382602046CE
:1045B00001F0F8FB206805602020C4F88800002086
:1045C00084F8840070BD022070BD70B5044690F878
:1045D000840001281DD0012084F884002420C4F820
:1045E000880020680568026822F0010202602068E5
:1045F000826822F060420A438260204601F0D2FBCA
:10460000206805602020C4F88800002084F8840019
:1046100070BD022070BD7047704770472DE9F041B2
:1046200003680446D86919689A6840F60F0528425D
:104630004FF000054FF002060AD187067ED501F043
:10464000200702F0805C57EA0C0777D0616F42E1E7
:10465000B64FDFF8DCC2174001EA0C0C57EA0C0C2D
:104660006CD05FEAC07C0CD05FEAC15C09D54FF02A
:10467000010CC3F820C0D4F8903043F00103C4F813
:104680009030830709D5D30707D023681E62D4F87A
:10469000903043F00403C4F8903043070AD5D307A1
:1046A00008D0266804233362D4F8903043F0020324
:1046B000C4F8903003070CD501F020033B4308D029
:1046C000266808233362D4F8903043F00803C4F816
:1046D000903003050BD54B0109D526684FF40063D4
:1046E0003362D4F8903043F02003C4F89030D4F80B
:1046F0009030002B3DD0800609D501F0200002F05B
:104700008051084303D0616F09B120468847D4F82F
:10471000900021688968490602D410F0280F2AD039
:10472000204601F023FC2068806840061ED52068E2
:10473000083050E8001F21F0400100E021E040E88F
:104740000012002AF3D1D4F8800078B1794981634E
:10475000D4F88000FDF7DDFF00280AD0D4F88000EF
:10476000816B00E02046BDE8F04108472046FFF796
:1047700054FFBDE8F0812046FFF74FFFC4F890508A
:10478000F7E7D4F86CC02027BCF1010F7ED15FEAB7
:10479000C06C7BD55FEAC16C78D5102018622068A8
:1047A0008068400651D5D4F880100A68506800042B
:1047B000000C3ED0B4F85C3083423AD9A4F85E00D5
:1047C0000868006880062CD4216851E8000F20F4A6
:1047D000807041E80002002AF6D12068083050E8D5
:1047E000001F21F0010140E80012002AF5D12068E5
:1047F000083050E8001F21F0400140E80012002A74
:10480000F5D1C4F88C70E566216851E8000F20F0FE
:10481000100041E80002002AF6D1D4F88000FDF72C
:1048200043FF2667B4F85C00B4F85E10401A81B20A
:1048300007E0B4F85C1081429BD11068800698D5DF
:1048400026672046FFF799FE93E7B4F85C00B4F8BA
:104850005E10401A81B2B4F85E00002889D00029A9
:1048600087D0226852E8000F20F4907042E80003DD
:10487000002BF6D12D4BDB432068083050E8002F89
:104880001A4040E8002CBCF1000F00E00EE0F3D12C
:10489000C4F88C70E5666567206850E8002F22F048
:1048A000100240E80023002BF6D1C9E7C60209D563
:1048B000560207D54FF4801018622046BDE8F0413B
:1048C000FFF7AABE03060AD501F0800302F4000236
:1048D000134304D0A16F00297FF444AF49E7420697
:1048E00011D54A060FD52046016851E8002F22F065
:1048F000400241E80023002BF6D1C0F8887085679C
:1049000000F0AEF835E7020206D54A0004D520468D
:10491000BDE8F041FFF77FBEC00195D5002993DACD
:104920002046BDE8F041FFF729BE0000010000105D
:10493000200100045D5F000810B5040003D0D4F826
:10494000880010B107E0012010BD002084F8840029
:10495000204600F027F82420C4F888002068016869
:1049600021F001010160A06A10B1204601F03CFA7B
:10497000204601F025FB0128E6D02068416821F49B
:10498000904141602068816821F02A01816020689F
:10499000016841F0010101602046BDE8104001F0CE
:1049A00087BA000070B59CB00646142115A8FBF725
:1049B000A2FD54216846FBF79EFD254930688842D8
:1049C00043D102240025684602950094FEF792FE2A
:1049D00008B1FCF773FF1F49886D40F4003088650B
:1049E000886D00F400301A90C86C40F00100C86473
:1049F000C86C15A900F001001A900C2081E8310064
:104A00000720CDE918504FF09040FDF7D3FF134C2D
:104A1000114820601B2060601020C4E9020580203E
:104A2000C4E90405A561E56120462562FDF70AFF9A
:104A300008B1FCF743FFF467002211462620A66266
:104A4000FEF7C0FD2620FEF7AFFD1CB070BD0000D4
:104A500000440040001002403000024018040020D2
:104A60007047072930D2DFE801F00A10161C22280F
:104A700004000068D0F8841341F0010122E00068CE
:104A8000D0F8841341F002011CE00068D0F88413D0
:104A900041F0040116E00068D0F8841341F00801E9
:104AA00010E00068D0F8841341F010010AE00068BB
:104AB000D0F8841341F0200104E00068D0F884139A
:104AC00041F04001C0F884137047000070B50368DE
:104AD0001A68D3F8A0534C6922F0200226461443EA
:104AE00024F0C002202E2BD08C69022C28D0032C5D
:104AF0002BD0042C2ED022F0E00200BF22F4006460
:104B0000CA69224322F480640A6A224322F0C06404
:104B10004A6A224322F000648A6A2243CC6A22F065
:104B2000404242EA840222F000544A6B096B22435D
:104B300025F4803421431A600068C0F8A01370BDCA
:104B400022F0C00242F02002D8E722F0800242F0B8
:104B50004002D3E722F0400242F08002CEE7F0B5F7
:104B60000024E426056806EBC11755F807C0B826EF
:104B700006EBC116AE59402A20D00EDC082A2CD0F4
:104B800006DC012A1AD0022A27D0042A31D115E0E6
:104B9000102A13D0202A2CD11FE0B2F5007F1CD0A0
:104BA00005DC802A19D0B2F5807F22D106E0B2F56B
:104BB000806F03D0B2F5006F1BD10EE04FF0BC0E3A
:104BC0000EEBC11E5A6845F80E204FF0C00E056866
:104BD0000EEBC1119A686A500BE0C42404EBC114B7
:104BE0005A682A51C825046805EBC1119A686250B9
:104BF0001024FE21A1401A682CEA010CA240D968B9
:104C000042EA0C02A14011431A69D3F814C01546B8
:104C1000A2400A430CFA04FC99694CEA020CA14038
:104C200041EA0C01082D06D1B20504D4B20102D428
:104C3000DA69A24011430068C151F0BD2DE9F04F7F
:104C40008024036804EBC117DC5924F07044DC5164
:104C50000568EC59E82303EBC1139E4655F803C0E1
:104C6000E42303EBC1139B4655F803A0D5F8A0330A
:104C7000566924F020043443202E24D09669022E55
:104C800021D0032E24D0042E27D024F4D07400BFCA
:104C900024F40066D469344324F48066146A3443EF
:104CA00024F0C066546A344324F00066946A3443A6
:104CB00024F07046D46A3443566B24F40034B6F1C1
:104CC000005F0FD010E024F4C07444F02004DFE74C
:104CD00024F4807444F08004DAE724F0800444F47F
:104CE0008074D5E744F4003424F04008946B2CF031
:104CF0003F0C264644EA080424F48028946D44EAD4
:104D00000804DFF8D08004EA0804D2F8508048EAAA
:104D1000040992F83C40D2F8408004F03F0444EA91
:104D20000C0424F0004448EA0408546C2AF4807C03
:104D300044EA0C04D2F848C0BCF5606F02D0BCF560
:104D4000F05F01D1402E03D124F4F0544CEA040466
:104D500024F48046D46C3443566D062927D2DFE80C
:104D600001F003090F151B21126B23F4003343EAF2
:104D700042031CE0126B23F4802343EA820316E013
:104D8000126B23F4002343EAC20310E0126B23F4F6
:104D9000801343EA02130AE0126B23F4001343EA80
:104DA000421304E0126B23F4800343EA821345F8B4
:104DB0000790056845F80E80056845F80B40D42437
:104DC000026804EBC11156500068C0F8A033BDE87A
:104DD000F08F0000FFFF06FEFEE701688A69D243FC
:104DE000920701D400228A6200688169C943C90719
:104DF00003D0816941F00101816170472DE9F047DD
:104E00000446006889460026816935461746C9066A
:104E10004FF0200841D51021C1612FE0B9F1FF3FCB
:104E20002CD0FDF7FDFEC11B494502D8B9F1000F9A
:104E300024D12068416894F8422001F480418369BC
:104E4000DB431B0415D4B1F5804F12D0202A10D0BB
:104E5000416841F480414160FDF7E2FE074608E009
:104E6000FDF7DEFEC01B192803D945F020050126F9
:104E700004E020688069C0438006F1D4206880691E
:104E8000C043800602D5002EC8D003E016B92168C1
:104E9000C1F81C8045F00405012621688869C20517
:104EA00005D54FF4807245F00105CA610126410520
:104EB00009D522684FF4806145F00805D1610126CB
:104EC000800502D40AE0800507D521684FF4007000
:104ED00045F00205C861012600E086B12046FFF7D3
:104EE0007CFF54F8240B4168064A11404160206A57
:104EF0002843206284F81D800020A0772077304668
:104F0000BDE8F08700E800FE2DE9F84304461646A8
:104F100015489846DDE90897DAB2C30200902046AA
:104F200000F024F83A464946204600F09FF8B8B908
:104F3000F5B2B8F1010F08D02168300A88623A460C
:104F40004946204600F092F850B9206885624B46E9
:104F5000002280212046009700F020F8002800D091
:104F60000120BDE8F88300000020008010B5C1F3E7
:104F7000090141EA02410268029C19432143506839
:104F800021F000414FF4806303EA5453024C234361
:104F900098430843506010BDFF63FF032DE9F041C3
:104FA0001D4617460E460446DDF8188027E04246A7
:104FB00029462046FFF722FF10B10120BDE8F0810D
:104FC000681C1CD0FDF72CFEA0EB0800A84200D8FE
:104FD000ADB92068806936EA00000ED00020B842E2
:104FE0000DD154F8440F40F0200044F8040920206B
:104FF00060700020A0702070DFE70120EFE72068DC
:10500000806936EA000004D00020B842CFD00020EA
:10501000D4E70120F9E770B516460D4604461EE0B8
:10502000324629462046FFF7E9FE08B1012070BD4F
:10503000FDF7F6FD801BA84200D885B9206880697D
:10504000C04380060BD554F8440F40F0200044F8CC
:105050000409202060700020A0702070E6E720681E
:105060008069C0438006DBD4002070BD70B5164651
:105070000D46044620E0324629462046FFF7BEFE94
:1050800008B1012070BD681C16D0FDF7C9FD801B5A
:10509000A84200D885B920688069C04380070BD535
:1050A00054F8440F40F0200044F8040920206070B8
:1050B0000020A0702070E4E720688069C04380076A
:1050C000D9D4002070BD70B50C460546FDF796FD9D
:1050D00008B1002070BD21462846FDF78FFD00284D
:1050E000F9D0012070BD00EB8100006E00F0F840A7
:1050F00070478068C0F3C00070478068C0F38000CC
:1051000070478068C0F380007047C06810F4406F3B
:1051100001D00020704701207047042303EAD153D7
:1051200010B518444369C1F3045107248C40A343CC
:105130008A401343436110BD00EB8100016E21F0F2
:10514000004111430166704730B58BB000240894CC
:105150000994202168460A94FBF7CDF91C484FF0CA
:10516000A041042501604FF40031C0E90114C4607E
:105170000461C0E90545047744770121016280F8A4
:105180002440C462046380F83840C46380F840401F
:10519000FCF7E2FF08B1FCF791FB08A90C48089462
:1051A000FCF794FB08B1FCF789FB0A480090062045
:1051B000CDE901047F200594CDE903056946044843
:1051C000FCF734FC002801D0FCF778FB0BB030BDB5
:1051D000BC00002002003004154808B5816C41F085
:1051E00004018164816C01F004010091816C41F043
:1051F00001018164806C002200F0010000901146E2
:105200000B20FEF7DFF90B20FEF7CEF90022114646
:105210000C20FEF7D7F90C20FEF7C6F90022114644
:105220000D20FEF7CFF9BDE808400D20FEF7BCB910
:105230000010024070B586B014216846FBF75BF998
:105240002148C16C41F00401C164C16C01F004014A
:105250000591C16C41F02001C164C16C01F02001D5
:105260000591C16C41F00101C164C16C01F0010103
:105270000591C16C41F00201C164C06C012200F0D3
:105280000200124E5403059021463046FDF7C3FC40
:105290000125CDE900450024029469463046039477
:1052A000FDF788FBC0208DE8310069464FF0904043
:1052B000FDF780FB4FF43C708DE8310069460448EF
:1052C000FDF778FB06B070BD0010024000080048F2
:1052D000000400482DE9F041AEB000240094019490
:1052E00002941C2127A80394FBF705F9602104A868
:1052F000FBF701F92494259420211CA82694FBF7A0
:10530000FAF878487649C0E900148460FDF7C0FCDB
:1053100008B1FCF7D3FA0C217248FDF787FC08B1FD
:10532000FCF7CCFA0A216F48FDF750FD08B1FCF7F5
:10533000C5FA08254FF47A50012603958DE85100EF
:105340006A4600216748FDF77AFD08B1FCF7B6FA16
:105350002894279429942A9427AA002161482D94FF
:10536000FDF7D5FE08B1FCF7A9FA0494059406945C
:10537000CDE9074609940A940E940F94139414945B
:105380004FF400200226CDE918060B940C941094DB
:105390001194159416944010CDE91A040D941294AA
:1053A00004AA00214F48FDF76AFE08B1FCF786FA0F
:1053B00004AA01214B48FDF762FE08B1FCF77EFA12
:1053C00024AB0122002147482494FDF775FD08B164
:1053D000FCF774FA4FF4FA57CDE9247424AB022297
:1053E000002140482694FDF767FD08B1FCF766FAF6
:1053F00024AB042200213B482494FDF75DFD08B155
:10540000FCF75CFA10204FF0040821942294CDE9B7
:105410001E84CDE91C6020941CAB01220021239442
:105420003048FDF7F9FD08B1FCF748FA1CAB04223F
:1054300001212C481E951C94FDF7EEFD08B1FCF7E8
:105440003DFA1CAB022200212648CDF878801C963C
:10545000FDF7E2FD08B1FCF731FA1CAB082201218F
:1054600020481E951C94FDF7D7FD08B1FCF726FADD
:105470006A4601211B48FDF7E2FC08B1FCF71EFA61
:1054800027AA01211748FDF742FE08B1FCF716FADA
:10549000012224AB11461348FDF70EFD08B1FCF7BD
:1054A0000DFA24AB022201210E482497FDF704FDDA
:1054B00008B1FCF703FA24AB042201210948249423
:1054C000FDF7FAFC08B1FCF7F9F99DE81E00064863
:1054D00080E81E000348FDF74FFC2EB0BDE8F081C8
:1054E0000068014088010020AC000020134810B57E
:1054F000114901601249416000210122C0E90212F4
:10550000016141618161C1610162FDF797FE08B1EE
:10551000FCF7D4F900210948FDF73BFE08B1FCF780
:10552000CDF900210548FDF75FFE002803D0BDE856
:105530001040FCF7C3B910BD007800408402002081
:10554000BE82B12010B588B00024174800940194A1
:1055500002940394049405944FF0804106940160F2
:105560006321C0E9011440F2F311C0E90314802162
:105570008161FEF702FE08B1FCF7A0F94FF48050FC
:10558000009069460848FEF78BFE08B1FCF796F9D3
:10559000049404A904480694FEF792FD002801D063
:1055A000FCF78CF908B010BD38030020184810B57E
:1055B000164901604FF4E1314160002181600C2205
:1055C000C160C0E904128161C1610162416281620E
:1055D000FFF7B2F908B1FCF771F900210C48FEF7AA
:1055E000F4FF08B1FCF76AF900210948FEF7C7FF8C
:1055F00008B1FCF763F90648FEF7A0FF002803D0C6
:10560000BDE81040FCF75AB910BD0000004400404E
:1056100084030020FEE700001C4810B5C1789FED10
:105620001C0A09B30021C17080ED090A90ED090A36
:10563000BCEEC00A10EE100A00F04AFA08B1FCF7FE
:105640003DF9022313A20021372000F075F902234F
:1056500012A20021372000F06FF9BDE810404FF48E
:1056600000511048FDF7CFBA0121C17080ED090A41
:1056700090ED090ABCEEC00A10EE100A00F028FAFC
:1056800008B1FCF71BF9022307A2E2E700000020A3
:105690000050C34720202020202000004F70656E5E
:1056A0000000000000080048436C6F7365000000B4
:1056B000FEE700000A2A25D2DFE802F005080B0EFB
:1056C0001114171A1D2002230FA219E002230FA2A2
:1056D00016E002230EA213E002230EA210E0022322
:1056E0000DA20DE002230DA20AE002230CA207E0A6
:1056F00002230CA204E002230BA201E002230BA26E
:1057000000F01AB9704700003000000031000000BE
:1057100032000000330000003400000035000000BB
:10572000360000003700000038000000390000009B
:1057300010B5002000F006F8BDE810406420FDF729
:1057400027B9000070B506465FF0000404F1B00010
:10575000C0B200F099FE002000F096FE102000F08C
:1057600093FE0025304600F0A1FE6D1CEDB2802DA9
:10577000F8D3641CE4B2082CE8D370BD10B5C8207F
:10578000FDF706F9AE2000F07FFE202000F07CFE41
:10579000102000F079FEB02000F076FEC82000F066
:1057A00073FE002000F070FE102000F06DFE40201F
:1057B00000F06AFE812000F067FEFF2000F064FE2A
:1057C000A12000F061FEA62000F05EFEA82000F0FF
:1057D0005BFE3F2000F058FEA42000F055FED320D1
:1057E00000F052FE002000F04FFED52000F04CFEED
:1057F000F02000F049FED92000F046FE222000F003
:1058000043FEDA2000F040FE122000F03DFEDB20D7
:1058100000F03AFE202000F037FE8D2000F034FE2C
:10582000142000F031FEAF2000F02EFEBDE8104045
:105830006420FDF7ADB810B58D2000F025FE1420D2
:1058400000F022FEBDE81040AF2000F01DBE0000B9
:1058500010B5FFF793FFFFF76BFF002102231FA294
:10586000084600F069F802231EA21946002000F045
:1058700063F802231DA21946442000F05DF80223BC
:105880001BA21946642000F057F8022319A2042134
:10589000002000F051F8022318A20421552000F046
:1058A0004BF8022316A20421782000F045F80223C9
:1058B00014A20621002000F03FF802230BA20621CB
:1058C0003C2000F039F8022310A206215F2000F0EE
:1058D00033F8BDE81040FFF7AEBF00004D6F6465C0
:1058E0003A000000467265713A0000002E00000088
:1058F0004B487A0044752F44543A00002F000000B2
:10590000250000004144433A00000000560000001A
:1059100010B50446B031C8B200F0B6FD102040EA20
:10592000141000F0B1FD04F00F00BDE8104040F08D
:10593000010000F0A9BD00002DE9F04700259146C7
:105940008A460446012B22D0DFF8BC80022B24D1EA
:1059500055E02038C7B27E2C04D90AF1010000249A
:1059600000F0FF0A51462046FFF7D2FF07EB470041
:10597000002608EB4007B85D00F098FD761CF6B2F3
:10598000062EF8D3A41D6D1CE4B2EDB201E0DFF8E1
:105990007C8019F805000028DBD1BDE8F0872038AD
:1059A000C7B2782C04D90AF10100002400F0FF0AE4
:1059B00051462046FFF7ACFF5FF0000606EB0711EB
:1059C00018F8010000F072FD761CF6B2082EF5D32F
:1059D0000AF10100C1B22046FFF79AFF5FF000060E
:1059E00006EB071101EB0800007A00F05FFD761C62
:1059F000F6B2082EF4D308346D1CE4B2EDB219F8F7
:105A000005000028CBD1C8E700690008D866000867
:105A10007047704770B5811E86B0312930D2194960
:105A200000256B460C6864216043B0FBF1F60195DC
:105A300002222946144800960295FDF73DFA08B166
:105A4000FBF73CFFA01B0390049503AB022201214E
:105A500005950D48FDF730FA08B1FBF72FFF4FF41D
:105A6000C0610948FDF7D3F908B1FBF727FF4FF4F0
:105A7000C0210548FDF7BAFA002801D0FBF71EFF48
:105A800006B070BDAC000020880100200EB5411F9B
:105A9000292917D20C496B46022209684143642028
:105AA000B1FBF0F000210090019102910748FDF751
:105AB00003FA38B96B46022201210448FDF7FCF9CC
:105AC000002800D001200EBDAC000020880100207D
:105AD000FEB5044629484EF661212044884241D251
